S01100006D61737465722076322E73726563BF
S11300000C943E000C945B000C945B000C945B001D
S11300100C945B000C945B000C945B000C945B00F0
S11300200C945B000C945B000C945B000C945B00E0
S11300300C945B000C945B000C945B000C945B00D0
S11300400C945B000C945B000C94E4030C945B0034
S11300500C945B000C945B000C945B000C945B00B0
S11300600C945B000C945B00CC00CE00D000D2005A
S1130070D400D600D800DA00DC00DE0011241FBE54
S1130080CFEFD4E0DEBFCDBF11E0A0E0B1E0E8E9FE
S1130090F9E002C005900D92A230B107D9F723E030
S11300A0A2E0B1E001C01D92A436B207E1F70E94BC
S11300B05D000C94CA040C9400000E94C4030E94C6
S11300C05F010E94FD00DFEFC0E010E00FEF08C009
S11300D0D82F06C0D82F04C0C82FD02F01C0C12FDD
S11300E00E944704882309F445C00E9476048823AB
S11300F02CF1CC2319F19C2F907F903959F4DF3FD8
S113010039F36C2F6F70482F8D2F0E943302D02F3C
S1130110C12FE6CF903A51F4DF3FE1F24C2F4F70FC
S1130120682F8D2F0E94D002C12FDACF9038C1F6EC
S11301306C2F6F700E947603C12FD2CF982F907EC0
S1130140903851F2982F907F903B29F48F700E9441
S11301503503C12FC5CF903F19F6813F21F40E948A
S1130160B702C12FBDCF803F09F0B9CF0E9455041B
S1130170C12FB6CF0E9490018FE19EE40197F1F761
S113018000C00000ADCF90E08A309105C0F4FC01BE
S1130190EC5CFF4F0C94B5045A9811C045980FC0FD
S11301A044980DC043980BC0429809C05B9807C09F
S11301B05C9805C05D9803C0409801C041988AE1ED
S11301C08A95F1F700C008958AE18A95F1F700C095
S11301D088B18F6388B98BB18C638BB908950E9401
S11301E0E4002A982FEF81EE94E021508040904063
S11301F0E1F700C000002A9A089584B1886284B9A6
S11302002B9A2D9887B18F6387B988B18F6388B98A
S11302108AB18C638AB98BB18C638BB9229A2A9A7E
S11302208FE39CE90197F1F700C000000E94EF0002
S1130230089520E030E060E870E090E0AB01022E29
S113024002C0559547950A94E2F748235923452B54
S113025011F02B9A01C02B9845E04A95F1F7000064
S11302602D9A45E04A95F1F700002D982F5F3F4FF6
S11302702830310519F72B9A0895CF93C82F862F6C
S11302800E94C3008C2F8F770E9419010E94E40002
S1130290CF9108950E94C30080E80E9419010E9432
S11302A0E4000895CF93C82F862F0E94C3008C2F9B
S11302B080680E9419010E94E400CF910895CF93B1
S11302C0DF93E6E0F1E0A8E3B1E086E191E011928A
S11302D01D92E817F907D9F7EEE2F1E024E231E0E4
S11302E0CAE1D1E068E471E048E351E08FEF819323
S11302F0D9018D939D011992DB011D921D921D92CE
S11303001D92BD01E417F50791F7109216011092A2
S113031017011092180110921901DF91CF910895DD
S1130320AF92BF92CF92DF92EF92FF920F931F93FF
S1130330CF93DF93CAE1D1E00F2EF4E2AF2EF1E0C8
S1130340BF2EF02D0F2EFEE2EF2EF1E0FF2EF02D4A
S113035010E00FEF8881882361F081508883811138
S113036008C0812F0E944A011882F5010083F70119
S113037010821F5F2196FFEFAF1ABF0A8FEFE81AB2
S1130380F80A1A3039F7DF91CF911F910F91FF903E
S1130390EF90DF90CF90BF90AF9008958F929F928F
S11303A0AF92BF92CF92DF92EF92FF921F93CF93BF
S11303B0DF93162F70E0FB01EC5DFE4F8083FB01A1
S11303C0E25DFE4F4083C0901601D0901701E0908B
S11303D01801F0901901460157019FEF891A990AF3
S11303E0A90AB90A8092160190921701A0921801E5
S11303F0B0921901FB01EE0FFF1FEE0FFF1FE85B28
S1130400FE4FC082D182E282F382FB01E65EFE4FA0
S113041020838C3418F08C508C34E8F7843218F430
S1130420845F8432E8F3C42FD0E0FE01E85CFE4F21
S113043090819851890F612F8F770E943D01CA5F87
S1130440DE4F8881882319F0612F0E945201DF91C9
S1130450CF911F91FF90EF90DF90CF90BF90AF901E
S11304609F908F900895BF92CF92DF92EF92FF9268
S11304700F931F93CF93DF93082FB62E142F9091D1
S113048024019F3F39F0E5E2F1E061E021912F3F43
S113049041F401C060E0212F4B2D802F0E94CE013A
S11304A05CC06F5F6A3091F790910001992309F461
S11304B047C0CCE4D1E0ABE1B1E091E08FEF30E0B4
S11304C0C990D990E990F990E32FF0E0EE0FFF1F67
S11304D0EE0FFF1FE85BFE4F408151816281738103
S11304E0C416D506E606F70618F4111101C0392F13
S11304F02D91222381F08F3F39F0E82FF0E0E65E62
S1130500FE4F4081241738F4112321F0121718F0FC
S1130510892F01C0892F9F5F9A3091F68F3F49F44C
S113052011111BC020E04B2D632F802F0E94CE01A0
S113053014C0212F4B2D682F802F0E94CE010DC097
S11305408B2D8F7080690E943C04802F8F770E94CE
S11305503C04812F8F770E943C04DF91CF911F913F
S11305600F91FF90EF90DF90CF90BF900895CF93BD
S1130570DF9381EF0E943C040E94EF00EAE1F1E086
S1130580C4E2D1E0AEE2B1E024E231E08FEF1192B7
S113059089938D93E217F307D1F7DF91CF910895F3
S11305A08F929F92AF92BF92CF92DF92EF92FF927F
S11305B00F931F93CF93DF93B82EA62ED42F842F9F
S11305C08F70806A0E943C048B2D8F770E943C04BC
S11305D08A2D8F770E943C04ED2FF0E0DF01A85CA8
S11305E0BE4F9C90EA5FFE4F8080BC92A0820F2E8B
S11305F0FEE2CF2EF1E0DF2EF02D04E211E00F2E0B
S1130600FAE1EF2EF1E0FF2EF02DC0E0F60181912A
S11306106F01D81315C0F80180818F3F89F0B9109C
S113062004C0A11009C0882059F0F70120814D2F82
S11306306C2F0E94CE0104C06C2F8A2D0E9452019F
S1130640CF5F0F5F1F4FFFEFEF1AFF0ACA30F1F6BB
S1130650DF91CF911F910F91FF90EF90DF90CF909A
S1130660BF90AF909F908F900895BF92CF92DF92EA
S1130670EF92FF920F931F93CF93DF93D82F8F7036
S1130680806B0E943C040EE211E00F2EFAE1CF2EA3
S1130690F1E0DF2EF02D0F2EF4E2EF2EF1E0FF2E2D
S11306A0F02DC0E0BB24BA94F8018081D81309C0AE
S11306B08C2F0E944A01F6011082F701B082F801E2
S11306C01082CF5F0F5F1F4FFFEFCF1ADF0A8FEF4C
S11306D0E81AF80ACA3041F7DF91CF911F910F91C0
S11306E0FF90EF90DF90CF90BF9008958F929F92EC
S11306F0AF92BF92CF92DF92EF92FF920F931F932C
S1130700CF93DF93082F962E862F8F7080680E94D8
S11307103C04802F8F770E943C04C4E2D1E00F2E6A
S1130720FEE2EF2EF1E0FF2EF02D0F2EFAE1CF2E98
S1130730F1E0DF2EF02D10E088248A9488810813DC
S11307400CC0F7018081981208C0812F0E944A01D1
S1130750F60110828882F70110821F5F2196FFEF55
S1130760EF1AFF0A8FEFC81AD80A1A3039F7DF9147
S1130770CF911F910F91FF90EF90DF90CF90BF909A
S1130780AF909F908F900895509A5198599A589885
S113079085B78F7E85BF1092C50081E18093C40028
S11307A0E0ECF0E080818D7F8083E2ECF0E08081FA
S11307B086608083E1ECF0E08081886180838081C1
S11307C080688083789408951F920F920FB60F92D9
S11307D011242F933F934F935F936F937F938F9342
S11307E09F93AF93BF93EF93FF93F8948091040189
S11307F0909105019C012F5F3F4F30930501209399
S113080004012091C600FC01E059FE4F2083409171
S11308100401509105019A0136952795369527953F
S1130820A5ECB0E20E94BB04929582958F70892753
S11308309F70892764EF71E0869F9001879F300D38
S1130840969F300D1124CA01821B930B90930501CE
S1130850809304017894FF91EF91BF91AF919F91A0
S11308608F917F916F915F914F913F912F910F9055
S11308700FBE0F901F9018958093C600E0ECF0E037
S1130880808190E08F6D9F6F0196D1F7089540911C
S1130890040150910501209102013091030181E08E
S11308A04217530709F480E00895F89480EF0E94FA
S11308B03C048FE39CE90197F1F700C00000E1ECF0
S11308C0F0E08081877E80839FEF26E489E0915069
S11308D020408040E1F700C0000089B1827080931D
S11308E000018081886180837894089520910401B7
S11308F03091050180910201909103012817390775
S1130900A9F380910201909103019C012F5F3F4F55
S11309103093030120930201FC01E059FE4FE08172
S113092040910201509103019A013695279536951D
S11309302795A5ECB0E20E94BB04929582958F7036
S113094089279F70892764EF71E0869F9001879FB4
S1130950300D969F300D1124CA01821B930B909386
S11309600301809302018E2F0895EE0FFF1F05905F
S1130970F491E02D0994A29FB001B39FC001A39FFD
S1130980700D811D1124911DB29F700D811D1124C4
S10B0990911D0895F894FFCFB6
S1050998FF005A
S9030000FC
