S0100000736C6176652076322E7372656331
S113000010C605C729C65DC627C626C625C624C68A
S1130010E1C622C621C620C61FC61EC61DC61CC6F2
S11300203FC68C7E7D7E6F7E607E527E437E347EB4
S1130030267E177E097EFA7DEC7DDD7DCF7DC07D39
S1130040B17DA37D947D867D777D697D5A7D4C7DD0
S11300503D7D2F7D217D127D047DF57CE77CD87C60
S1130060CA7CBC7CAD7C9F7C907C827C747C657CEF
S1130070577C487C3A7C2C7C1D7C0F7C017CF27B79
S1130080E47BD67BC87BB97BAB7B9D7B8E7B807B03
S1130090727B647B557B477B397B2B7B1C7B0E7B84
S11300A0007B41823282238214820582F681E781B9
S11300B0D881C981BA81AB819C818D817E816F8118
S11300C06081518142813481258116810781F880C4
S11300D0E980DA80CB80BC80AD809F809080818075
S11300E072806380548046803780288019800A801B
S11300F0FC7FED7FDE7FCF7FC07FB27FA37F947FC5
S1130100857F777F687F597F4B7F3C7F2D7F1F7F63
S1130110107F017FF27EE47ED57EC77EB87EA97E05
S11301209B7E13860486F485E585D585C685B685CC
S1130130A78597858885788569855A854A853B850D
S11301402B851C850D85FD84EE84DF84CF84C084DB
S1130150B184A184928483847384648455844584A3
S11301603684278418840884F983EA83DB83CB8369
S1130170BC83AD839E838F837F837083618352832B
S113018043833483248315830683F782E882D982E8
S1130190CA82BA82AB829C828D827E826F826082A6
S11301A05182018AF189E189D189C189B189A18901
S11301B09189818972896289528942893289228925
S11301C012890389F388E388D388C388B488A48810
S11301D094888488748865885588458835882688F5
S11301E016880688F787E787D787C787B887A887D9
S11301F098878987798769875A874A873B872B87B6
S11302001B870C87FC86ED86DD86CD86BE86AE8692
S11302109F868F8680867086618651864186328667
S113022022860C8EFC8DEB8DDB8DCA8DBA8DAA8D4A
S1130230998D898D798D688D588D488D378D278D51
S1130240178D068DF68CE68CD68CC58CB58CA58C5A
S1130250958C848C748C648C548C438C338C238C5C
S1130260138C038CF28BE28BD28BC28BB28BA28B5E
S1130270928B818B718B618B518B418B318B218B59
S1130280118B018BF18AE18AD18AC18AB18AA18A50
S1130290918A818A718A618A518A418A318A218A42
S11302A0118A3692259214920392F291E191D0919F
S11302B0BF91AF919E918D917C916B915B914A918D
S11302C03991289118910791F690E590D590C490B2
S11302D0B390A29092908190709060904F903E90D5
S11302E02E901D900C90FC8FEB8FDA8FCA8FB98FF4
S11302F0A98F988F878F778F668F568F458F358F0D
S1130300248F148F038FF28EE28ED18EC18EB08E25
S1130310A08E908E7F8E6F8E5E8E4E8E3D8E2D8E35
S11303201C8E7E966D965B964A96399627961696FF
S11303300496F395E295D195BF95AE959D958B95D1
S11303407A95699558954695359524951395019513
S1130350F094DF94CE94BD94AB949A948994789459
S11303606794569445943394229411940094EF9393
S1130370DE93CD93BC93AB939A93899378936793CD
S1130380559344933393229311930093EF92DF9206
S1130390CE92BD92AC929B928A9279926892579235
S11303A04692E79AD59AC39AB19A9F9A8E9A7C9A62
S11303B06A9A589A469A349A239A119AFF99ED990F
S11303C0DB99CA99B899A6999499839971995F9977
S11303D04D993C992A9918990799F598E398D298D8
S11303E0C098AE989D988B98799868985698459837
S11303F0339822981098FE97ED97DB97CA97B89791
S1130400A79795978497729761974F973E972C97E4
S11304101B970997F896E696D596C496B296A19638
S11304208F96719F5F9F4C9F3A9F279F159F039FB5
S1130430F09EDE9ECC9EB99EA79E959E829E709E47
S11304405E9E4B9E399E279E159E029EF09DDE9DCC
S1130450CC9DB99DA79D959D839D719D5E9D4C9D51
S11304603A9D289D169D049DF19CDF9CCD9CBB9CD0
S1130470A99C979C859C739C619C4F9C3C9C2A9C4A
S1130480189C069CF49BE29BD09BBE9BAC9B9A9BC6
S1130490889B769B649B539B419B2F9B1D9B0B9B33
S11304A0F99A1DA40AA4F7A3E4A3D1A3BEA3ABA302
S11304B099A386A373A360A34DA33AA327A314A36C
S11304C002A3EFA2DCA2C9A2B6A2A4A291A27EA218
S11304D06BA258A246A233A220A20EA2FBA1E8A1BD
S11304E0D5A1C3A1B0A19DA18BA178A165A153A160
S11304F040A12DA11BA108A1F6A0E3A0D0A0BEA0FD
S1130500ABA099A086A074A061A04FA03CA02AA093
S113051017A005A0F29FE09FCD9FBB9FA89F969F29
S1130520839FECA8D8A8C5A8B1A89EA88BA877A833
S113053064A850A83DA829A816A802A8EFA7DCA77C
S1130540C8A7B5A7A2A78EA77BA767A754A741A74B
S11305502DA71AA707A7F4A6E0A6CDA6BAA6A7A614
S113056093A680A66DA65AA646A633A620A60DA6D7
S1130570FAA5E6A5D3A5C0A5ADA59AA587A574A59A
S113058060A54DA53AA527A514A501A5EEA4DBA455
S1130590C8A4B5A4A2A48FA47CA469A456A443A40B
S11305A030A4DFADCBADB7ADA3AD8FAD7BAD67AD43
S11305B053AD3FAD2BAD17AD03ADEFACDBACC7AC6A
S11305C0B3AC9FAC8BAC77AC63AC4FAC3BAC27AC5F
S11305D014AC00ACECABD8ABC4ABB0AB9CAB89AB4C
S11305E075AB61AB4DAB39AB26AB12ABFEAAEAAA35
S11305F0D7AAC3AAAFAA9BAA88AA74AA60AA4DAA1A
S113060039AA25AA12AAFEA9EAA9D7A9C3A9B0A9F9
S11306109CA988A975A961A94EA93AA927A913A9D2
S113062000A9F7B2E2B2CEB2B9B2A4B290B27BB230
S113063067B252B23DB229B214B200B2EBB1D6B134
S1130640C2B1ADB199B184B170B15BB147B132B14E
S11306501EB109B1F5B0E1B0CCB0B8B0A3B08FB061
S11306607BB066B052B03DB029B015B000B0ECAF6D
S1130670D8AFC3AFAFAF9BAF87AF72AF5EAF4AAF78
S113068036AF21AF0DAFF9AEE5AED0AEBCAEA8AE7D
S113069094AE80AE6CAE57AE43AE2FAE1BAE07AE7B
S11306A0F3AD35B820B80BB8F6B7E0B7CBB7B6B7EB
S11306B0A1B78CB776B761B74CB737B722B70CB7C9
S11306C0F7B6E2B6CDB6B8B6A3B68EB679B664B60A
S11306D04FB63AB624B60FB6FAB5E5B5D0B5BBB544
S11306E0A6B591B57CB567B553B53EB529B514B576
S11306F0FFB4EAB4D5B4C0B4ABB496B482B46DB4A8
S113070058B443B42EB419B405B4F0B3DBB3C6B3D0
S1130710B1B39DB388B373B35EB34AB335B320B3F7
S11307200CB39CBD86BD70BD5ABD44BD2FBD19BD63
S113073003BDEDBCD7BCC1BCACBC96BC80BC6ABC20
S113074055BC3FBC29BC13BCFEBBE8BBD2BBBCBB85
S1130750A7BB91BB7BBB66BB50BB3BBB25BB0FBBE5
S1130760FABAE4BACFBAB9BAA3BA8EBA78BA63BA43
S11307704DBA38BA22BA0DBAF7B9E2B9CCB9B7B999
S1130780A1B98CB976B961B94CB936B921B90BB9EB
S1130790F6B8E1B8CBB8B6B8A1B88BB876B861B83A
S11307A04BB82AC314C3FDC2E7C2D0C2BAC2A3C2A3
S11307B08DC276C260C249C233C21DC206C2F0C134
S11307C0D9C1C3C1ADC196C180C169C153C13DC1C5
S11307D026C110C1FAC0E4C0CDC0B7C0A1C08AC050
S11307E074C05EC048C032C01BC005C0EFBFD9BFD3
S11307F0C3BFADBF96BF80BF6ABF54BF3EBF28BF53
S113080012BFFCBEE6BED0BEBABEA4BE8EBE78BECB
S113081062BE4CBE36BE20BE0ABEF4BDDEBDC8BD3F
S1130820B2BDE2C8CBC8B4C89CC885C86EC857C896
S113083040C829C812C8FAC7E3C7CCC7B5C79EC702
S113084087C770C759C742C72BC714C7FDC6E6C6BA
S1130850CFC6B8C6A1C68AC673C65CC645C62EC670
S113086018C601C6EAC5D3C5BCC5A5C58EC578C51D
S113087061C54AC533C51CC506C5EFC4D8C4C1C4C7
S1130880ABC494C47DC467C450C439C423C40CC469
S1130890F5C3DFC3C8C3B1C39BC384C36EC357C30B
S11308A041C3C5CEADCE95CE7DCE65CE4ECE36CE31
S11308B01ECE06CEEECDD7CDBFCDA7CD8FCD78CD74
S11308C060CD48CD30CD19CD01CDE9CCD2CCBACC58
S11308D0A2CC8BCC73CC5BCC44CC2CCC15CCFDCB38
S11308E0E6CBCECBB6CB9FCB87CB70CB58CB41CB13
S11308F029CB12CBFBCAE3CACCCAB4CA9DCA85CAE7
S11309006ECA57CA3FCA28CA11CAF9C9E2C9CBC9B3
S1130910B3C99CC985C96DC956C93FC928C910C97D
S1130920F9C8D4D4BBD4A3D48AD472D459D441D46E
S113093028D410D4F7D3DFD3C6D3AED395D37DD385
S113094064D34CD334D31BD303D3EAD2D2D2BAD296
S1130950A1D289D271D258D240D228D210D2F7D1A2
S1130960DFD1C7D1AFD196D17ED166D14ED136D1A8
S11309701ED105D1EDD0D5D0BDD0A5D08DD075D0A8
S11309805DD045D02CD014D0FCCFE4CFCCCFB4CFA5
S11309909CCF84CF6CCF54CF3DCF25CF0DCFF5CE98
S11309A0DDCE11DBF7DADEDAC5DAABDA92DA79DA40
S11309B060DA46DA2DDA14DAFBD9E2D9C8D9AFD92C
S11309C096D97DD964D94BD932D919D900D9E6D869
S11309D0CDD8B4D89BD882D869D850D837D81ED8A7
S11309E005D8ECD7D4D7BBD7A2D789D770D757D7D8
S11309F03ED725D70CD7F4D6DBD6C2D6A9D690D607
S1130A0078D65FD646D62DD615D6FCD5E3D5CAD52D
S1130A10B2D599D580D568D54FD536D51ED505D54F
S1130A20EDD47CE162E148E12EE114E1FAE0E0E09A
S1130A30C6E0ACE092E078E05EE044E02AE010E05A
S1130A40F7DFDDDFC3DFA9DF8FDF75DF5CDF42DFC8
S1130A5028DF0EDFF4DEDBDEC1DEA7DE8EDE74DE31
S1130A605ADE40DE27DE0DDEF3DDDADDC0DDA7DD94
S1130A708DDD73DD5ADD40DD27DD0DDDF4DCDADCF0
S1130A80C1DCA7DC8EDC74DC5BDC41DC28DC0EDC46
S1130A90F5DBDCDBC2DBA9DB8FDB76DB5DDB43DB99
S1130AA02ADB17E8FDE7E2E7C7E7ACE792E777E779
S1130AB05CE741E727E70CE7F1E6D7E6BCE6A1E609
S1130AC087E66CE651E637E61CE602E6E7E5CCE5A8
S1130AD0B2E597E57DE562E548E52DE513E5F8E443
S1130AE0DEE4C4E4A9E48FE474E45AE440E425E4D5
S1130AF00BE4F1E3D6E3BCE3A2E387E36DE353E362
S1130B0039E31EE304E3EAE2D0E2B5E29BE281E2E8
S1130B1067E24DE233E219E2FEE1E4E1CAE1B0E169
S1130B2096E1E4EEC8EEADEE91EE76EE5AEE3FEECF
S1130B3023EE08EEECEDD1EDB5ED9AED7EED63ED2F
S1130B4047ED2CED11EDF5ECDAECBFECA3EC88EC01
S1130B506DEC51EC36EC1BECFFEBE4EBC9EBAEEBCC
S1130B6092EB77EB5CEB41EB26EB0BEBEFEAD4EA91
S1130B70B9EA9EEA83EA68EA4DEA32EA17EAFCE94E
S1130B80E1E9C6E9ABE990E975E95AE93FE924E905
S1130B9009E9EEE8D3E8B8E89DE882E867E84DE8BB
S1130BA032E8E4F5C8F5ABF58FF572F556F53AF58C
S1130BB01DF501F5E5F4C9F4ACF490F474F458F4BB
S1130BC03BF41FF403F4E7F3CBF3AEF392F376F3C1
S1130BD05AF33EF322F306F3EAF2CEF2B2F296F2BD
S1130BE07AF25EF242F226F20AF2EEF1D2F1B6F1B4
S1130BF09AF17EF162F146F12AF10EF1F3F0D7F0A9
S1130C00BBF09FF083F068F04CF030F014F0F9EF93
S1130C10DDEFC1EFA5EF8AEF6EEF52EF37EF1BEF79
S1130C2000EF11241FBECFE5D2E0DEBFCDBF10E040
S1130C30A0E6B0E0E0E7FEE002C005900D92A83720
S1130C40B107D9F720E0A8E7B0E001C01D92AC37A6
S1130C50B207E1F759D00AC1D3C91FB88EB1807F5A
S1130C608EB9769A0895F8948AB38F7A8ABBB99824
S1130C7080B5826080BD8BB780628BBF10927A0092
S1130C80ECDF8DB1897F8DB98DB188648DB978948D
S1130C900895F89480917A0010927A0078940895D7
S1130CA01F920F920FB60F9211248F93B19903C024
S1130CB08FB180937A008F910F900FBE0F901F9089
S1130CC018951F920F920FB60F9211242F933F93F2
S1130CD04F935F936F937F938F939F93AF93BF9340
S1130CE0EF93FF93BADFFF91EF91BF91AF919F9183
S1130CF08F917F916F915F914F913F912F910F90C1
S1130D000FBE0F901F90189513D0ADDFCCE0C1DF5C
S1130D108823E9F334F06C2F9DD0682F892F4CD0B1
S1130D20F6CF803811F452D0F2CF8F7722D0EFCFA4
S1130D30F8948AB38E628ABB8BB38E608BBB8FB5FB
S1130D4083628FBD8FB58F7E8FBD8EB58A618EBD58
S1130D508FEF9FEF9BBD8ABD80E09FEF99BD88BD5B
S1130D60609A85B78C7F85BF8BB780648BBF78947E
S1130D700895F8941DBC1CBCE0917900F0E0EE0FDE
S1130D80FF1FE05AFF4F20819181E22FF92FE80FD6
S1130D90F11DE80FF11D808191810090780002C05F
S1130DA0969587950A94E2F79BBD8ABD845691096E
S1130DB099BD88BD789408958093790060937800F4
S1130DC080E0D7DF8BB3897F8BBB08958BB38660BC
S1130DD08BBB08951F920F920FB60F9211248F931D
S1130DE089B3867071F480917B008F5F80937B0060
S1130DF0803A20F010927B00DB9A03C0803509F41E
S1130E00DB988F910F900FBE0F901F9018951F9233
S1130E100F920FB60F9211242F933F934F935F932A
S1130E206F937F938F939F93AF93BF93EF93FF93AE
S1130E30CDDFFF91EF91BF91AF919F918F917F9102
S1130E406F915F914F913F912F910F900FBE0F9033
S1130E501F901895991B79E004C0991F961708F004
S1130E60961B881F7A95C9F780950895F894FFCF4B
S1130E70220B220A22092208220722062205220422
S10B0E802203220222012200D8
S9030000FC
