:100000000C9434000C9451000C9451000C94510049
:100010000C9451000C9451000C9451000C9451001C
:100020000C9451000C9451000C9451000C9451000C
:100030000C9451000C9451000C9451000C945100FC
:100040000C9451000C9451000C9488030C945100B2
:100050000C9451000C9451000C9451000C945100DC
:100060000C9451000C94510011241FBECFEFD4E02A
:10007000DEBFCDBF12E0A0E0B1E0ECEEF8E002C0E0
:1000800005900D92AA31B107D9F724E0AAE1B2E0B8
:1000900001C01D92A236B207E1F70E9453000C94F2
:1000A00074040C9400000E9470038AB183708AB9B2
:1000B00084B1807C84B98BB18C6F8BB985B18F632F
:1000C00085B985B78F7E85BF2FEF39E648E121508E
:1000D00030404040E1F700C000000E941F038FEF56
:1000E00093ECA9E081509040A040E1F700C00000EF
:1000F0000E94EB03BFEF25EA3EE0B15020403040C4
:10010000E1F700C00000C0E040E850E060E070E0CF
:100110008C2F0E943003CF5FC031B1F71FEF00E09A
:100120007724739499249A94812C22242394612C0B
:10013000412C312C512C0F2EF4E1CF2EFFE0DF2E7D
:10014000F02D0EC01C2F0CC0192D082D09C01C2F1E
:1001500007C0192D082D04C0192D082D01C01C2F12
:100160000E94EF03C82F807F803771F188F48033BD
:1001700059F138F4803141F1803231F18111F0CF01
:1001800023C0803509F18036F9F0803449F71CC06E
:10019000803BB9F040F48039A1F0803A09F4F5C110
:1001A0008038F1F60EC0803D09F4F2C120F4803CA5
:1001B00009F4EEC1D5CF803E21F0803F09F4E8C1BB
:1001C000CFCF0C2F192DCCCF802F807F803841F4DA
:1001D000602F6F708C2F0E942303192D082DC0CF24
:1001E000803909F000C11F3F09F4ACCFCC2309F4DA
:1001F000F2C00F70E02FF0E0E05FFE4F408129B1C8
:1002000083B130E020953095359527953595279524
:100210002F73332790E0809590958F739927002452
:10022000969587950794969587950794982F802D96
:10023000282B392B093009F4AEC16C2F70E0675EB2
:100240007F4F469FC001479F900D11248657984FBE
:10025000B6010E942E045B012034310509F450C020
:100260009CF428303105E1F13CF42230310529F1CC
:100270002430310561F167C02031310509F4BFC177
:1002800020323105B9F15FC0211542E0340709F48D
:100290004AC03CF420383105C9F121153140E1F163
:1002A00052C02115A4E03A0709F441C02115384095
:1002B00009F443C048C0A12CB12CC295C695C770A3
:1002C000D0E02196D595C79540C0A12CB12CC29500
:1002D000CF70D0E02196D595C79537C0A12CB12C11
:1002E000C695C695C695D0E02196D595C7952DC0E3
:1002F000A12CB12C22E0C22FD52D88C1A12CB12C6C
:1003000043E0C42FD32D82C1A12CB12C95E0C92F7D
:10031000D42D7CC1A12CB12CE5012196D595C79592
:1003200014C0A12CB12CE50110C0A12CB12CE50109
:10033000CC0FDD1F0AC0A12CB12CE501CC0FDD1FB5
:10034000CC0FDD1F02C0C0E0D0E01A141B04BCF4C7
:10035000E12CF12C482D602F812F0E940B031E33BE
:1003600028F0482D602F812F0E940B03BFEFEB1A5E
:10037000FB0AEA14FB0474F302C0C0E0D0E01C16D0
:100380001D060CF0E1CEE12CF12CCE01880F991F57
:100390009C01205E3E4F5901D501ED91FC91EE0D7F
:1003A000FF1D4081602F812F0E940B031E3350F0F0
:1003B000D501ED91FC91EE0DFF1D4081602F812F45
:1003C0000E940B03BFEFEB1AFB0AEC16FD0624F3A9
:1003D000192D082DC5CE602F6F70812F0E94230329
:1003E0000C2F192DBDCE803B09F0A7C01F3F09F48B
:1003F000AECE163071F50F70602F70E0FB01E65B3A
:10040000FD4F208140E8249F90011124FB01E65A12
:10041000FD4F8081282B232B09F09BCEFB01E05060
:10042000FF4FC083FB01E65CFD4F808190E8C99FD0
:10043000A0011124480F511D660F771FFB01E65ED6
:10044000FD4F60817181802F0E943003192D082D8E
:1004500087CE173049F40F70E02FF0E0E05FFE4FD9
:10046000C083192D082D7CCE1632C1F50F70202FB8
:1004700030E0F901E65BFD4F8081A0E88A9FC00172
:100480001124F901E65AFD4F4081842B892B09F094
:1004900063CEB0E4CB9FC0011124499662E370E0C3
:1004A0000E942E04F901E65CFD4F6083F901E050E3
:1004B000FF4F8081AB01552790E8899F400D511D6A
:1004C0001124220F331FF901E65EFD4F6081718117
:1004D000802F0E943003192D082D42CE88E8810F0D
:1004E000823028F01B3761F0192D082D39CE1937CD
:1004F00039F4E02FEF70F0E0E05FFE4FAFE7A0834C
:10050000802F8F70282F30E0F901E65AFD4F1082BE
:10051000F901E65BFD4F1082F901E65CFD4F1082A8
:10052000F901E050FF4F708240E850E060E070E079
:100530000E943003192D082D13CE803E09F010CEF5
:100540001F3F09F40CCEB0E8CB9FB0011124612B02
:100550007052802F8F70282F30E0F901EE0FFF1FAF
:10056000E65EFD4F71836083F901E050FF4F90819B
:10057000F901E65CFD4F408150E020E8929F400D7C
:10058000511D11240E943003EBCD192D082DE8CD0B
:10059000192D082DE5CD2034310509F4AFCEB4F482
:1005A0002830310509F49ACE4CF42230310509F493
:1005B00082CE2430310509F488CEDFCE20313105DA
:1005C00009F12032310509F493CED7CE211542E04E
:1005D000340709F4A6CE4CF42038310509F494CE42
:1005E0002115314009F496CEC8CE2115A4E03A0772
:1005F00009F49BCE2115384009F49DCEBECEC22D04
:10060000D62D04C0A12CB12CC22DD62D1A141B043A
:100610000CF49ECEB8CECF93DF93D82FC42F862F65
:100620008F7080690E94E0038D2F8F770E94E00316
:100630008C2F8F770E94E003DF91CF91089581EF97
:100640000E94E0030895CF93C82F862F8F70806893
:100650000E94E0038C2F8F770E94E003CF910895D2
:10066000CF92DF92EF92FF926B017A018F70806AD6
:100670000E94E0039601D7010E944204DC01CB01F5
:10068000072E7DE0B595A795979587957A95D1F733
:10069000702D0196A11DB11D6C017D01F594E794AB
:1006A000D794C794689416F8B595A79597958795AC
:1006B0001694D1F78F770E94E003FF202CF08C2D49
:1006C0008F730E94E00307C08C2D81958F738195F5
:1006D0008F770E94E003FF90EF90DF90CF90089516
:1006E0001092C50081E18093C400E0ECF0E08081CD
:1006F0008D7F8083E2ECF0E0808186608083E1EC96
:10070000F0E088E180838081806880837894089518
:100710001F920F920FB60F9211242F933F934F9376
:100720005F936F937F938F939F93AF93BF93EF9359
:10073000FF93F89480916C0290916D029C012F5F61
:100740003F4F30936D0220936C022091C600FC0154
:10075000E259FD4F208340916C0250916D029A0145
:100760003695279536952795A5ECB0E20E944A0468
:10077000929582958F7089279F70892764EF71E029
:10078000869F9001879F300D969F300D1124CA01DE
:10079000821B930B90936D0280936C027894FF916F
:1007A000EF91BF91AF919F918F917F916F915F91E9
:1007B0004F913F912F910F900FBE0F901F90189562
:1007C0008093C600E0ECF0E0808190E08F6D9F6F39
:1007D0000196D1F7089580EF0E94E00308952091DB
:1007E0006C0230916D0280916A0290916B02281721
:1007F0003907A9F380916A0290916B029C012F5FE7
:100800003F4F30936B0220936A02FC01E259FD4F87
:10081000E08140916A0250916B029A0136952795CA
:1008200036952795A5ECB0E20E944A0492958295F0
:100830008F7089279F70892764EF71E0869F9001F0
:10084000879F300D969F300D1124CA01821B930B98
:1008500090936B0280936A028E2F089597FB072E68
:1008600016F4009407D077FD09D00E94600407FCBD
:1008700005D03EF4909581959F4F089570956195B0
:100880007F4F08950E944A04332312F48A1B9B0B66
:100890000C945B04A29FB001B39FC001A39F700D95
:1008A000811D1124911DB29F700D811D1124911D78
:1008B00008950E944A04B7FF0895821B930B089580
:1008C000AA1BBB1B51E107C0AA1FBB1FA617B70776
:1008D00010F0A61BB70B881F991F5A95A9F7809592
:0C08E0009095BC01CD010895F894FFCF65
:1008EC0001010101010101010101010101010101EC
:1008FC007F7F7F7F7F7F7F7F7F7F7F7F7F7F7F7FFC
:10090C0019021702140210020B020502FE01F60175
:10091C00ED01E301D801CC01BF01B101A2019201AB
:10092C0081016F015C014801030506070D0F1214CC
:10093C00171E252C373C424D5A67737F0506070D51
:10094C000F1214171E252C373C424D5A67737F0526
:10095C0006070D1214171E252C373C424D5A67738F
:10096C007F0506070D121417252C373C424D5A678C
:10097C00737F0506070D121417252C37424D5A6745
:10098C00737F0506070D1217252C37424D5A6773D6
:10099C007F0506070D1217252C374D5A67737F05F7
:1009AC00070D1217252C374D5A67737F05070D124B
:1009BC0017252C374D5A677F05070D1217252C3735
:1009CC004D677F05070D17252C374D677F05070DE4
:1009DC001725374D677F05070D1725374D67050719
:1009EC000D1725374D05070D17253705070D17254D
:0A09FC0005070D1705070D05070597
:00000001FF
