:100000000C9434000C9451000C9451000C94510049
:100010000C9451000C9451000C9451000C9451001C
:100020000C9451000C9451000C9451000C9451000C
:100030000C9451000C9451000C942A030C94510020
:100040000C9451000C9451000C94BE030C9451007C
:100050000C9451000C9451000C9451000C945100DC
:100060000C9451000C94510011241FBECFEFD8E026
:10007000DEBFCDBF11E0A0E0B1E0EEEBF9E002C0E1
:1000800005900D92A034B107D9F723E0A0E4B1E0C8
:1000900001C01D92AC37B207E1F70E9460040C94D6
:1000A000DD040C94000020E030E060E870E090E0B7
:1000B000AB01022E02C0559547950A94E2F74823FA
:1000C0005923452B11F02D9A01C02D984AE64A95E7
:1000D000F1F700C02C9A4AE64A95F1F700C02C9837
:1000E0004AE64A95F1F700C02F5F3F4F28303105AF
:1000F000F9F62D9A0895CF938F70C1E0C80F85E56A
:100100000E9453002FEF89EF90E0215080409040F3
:10011000E1F700C000008BE20E9453002FEF89EF4F
:1001200090E0215080409040E1F700C000008AEA52
:100130000E9453002FEF89EF90E0215080409040C3
:10014000E1F700C0000084ED0E9453002FEF89EF1B
:1001500090E0215080409040E1F700C0000020E195
:10016000C29FC00111248C2B0E9453008FEF99EF86
:1001700020E0815090402040E1F700C00000CF9186
:1001800008958F3F21F481E10E94530008958A3041
:1001900018F48F5F0E94530008958F3F21F481E986
:1001A0000E94530008958A3020F48F5F80680E9477
:1001B00053000895CF93DF938823D4F06A30C0F4BE
:1001C000D62FC82F81E90E9453008D2F0E94C100B5
:1001D000C0688C2F0E9453008D2F0E94C1008C2F6D
:1001E0000E9453008D2F0E94C1008C2F0E9453004B
:1001F000DF91CF910895CF93DF9388236CF06A301D
:1002000058F4D62FC82F81E90E9453008D2F0E94E9
:10021000C1008C2F0E945300DF91CF9108958F92DF
:100220009F92AF92BF92CF92DF92EF92FF921F9375
:10023000CF93DF93CDB7DEB7E0970FB6F894DEBF6C
:100240000FBECDBF80E1E0E2F1E0DE01119601904A
:100250000D928A95E1F780E1E0E3F1E0DE0151964D
:1002600001900D928A95E1F780E1E0E2F1E0DE0194
:10027000919601900D928A95E1F784B1806384B9DB
:1002800085B1806385B97E0121E1E20EF11C5E013A
:1002900081E2A80EB11CDE0111966D0110E08824E8
:1002A0008394912CF7018081813041F524B1C40100
:1002B000D5010C9002C0880F991F0A94E2F7822B97
:1002C00084B995B19401D6010C9002C0220F331F5E
:1002D0000A94E2F7822F8095892385B98FE39CE900
:1002E0000197F1F700C0000025B1C4010C9002C0D5
:1002F000880F991F0A94E2F7822B85B9808182309A
:1003000041F527B1C401D5010C9002C0880F991F97
:100310000A94E2F7822B87B998B19401D6010C9028
:1003200002C0220F331F0A94E2F7822F809589239F
:1003300088B98FE39CE90197F1F700C0000028B16C
:10034000C4010C9002C0880F991F0A94E2F7822B17
:1003500088B9BFEFEB1AFB0A8081833041F52AB1DF
:10036000C401F501008002C0880F991F0A94E2F7CA
:10037000822B8AB99BB19401D6010C9002C0220F46
:10038000331F0A94E2F7822F809589238BB9EFE31C
:10039000FCE93197F1F700C000002BB1C4010C90CB
:1003A00002C0880F991F0A94E2F7822B8BB9BFEF26
:1003B000E1EEF4E0B150E040F040E1F700C00000B1
:1003C000812F0E947B00812F0E947B00812F0E9441
:1003D0007B001F5F2FEFA21AB20A8FEFC81AD80A4C
:1003E0001A3009F05FCF9FEFADE3B9E49150A04020
:1003F000B040E1F700C000008FEF0E94C10086E12D
:100400000E94530081E90E945300E0960FB6F894D1
:10041000DEBF0FBECDBFDF91CF911F91FF90EF9058
:10042000DF90CF90BF90AF909F908F9008950F93E3
:100430001F93CF93DF93D82F142FCCE0C60FCA356C
:1004400018F0CC50CA35E8F7C83118F4C45FC83189
:10045000E8F36D2F8C2F0E94FB008D2F90E0FC01A4
:10046000E050FF4FC083FC01E05FFE4F10834091DE
:1004700040015091410160914201709143018A0114
:100480009B010F5F1F4F2F4F3F4F00934001109371
:1004900041012093420130934301880F991F880F37
:1004A000991FFC01EC5BFE4F408351836283738391
:1004B000DF91CF911F910F910895CF92DF92EF922C
:1004C000FF920F931F93CF93DF93D82F162F0F2EEA
:1004D000F0E0EF2EF1E0FF2EF02D00E0C1E0F7019B
:1004E00081917F018F3F31F44D2F612F802F0E942A
:1004F0001702C1500F5F0A3019F4C11124C029C07E
:10050000C111EDCF26C0CD90DD90ED90FD90E82F8C
:10051000F0E0EE0FFF1FEE0FFF1FEC5BFE4F408180
:10052000518162817381C416D506E606F70608F488
:10053000892F9F5F9A3039F74D2F612F0E94170244
:10054000C15011F406C000E0A8E4B1E091E0802FB2
:10055000DACFDF91CF911F910F91FF90EF90DF9055
:10056000CF900895AF92BF92CF92DF92EF92FF9219
:100570000F931F93CF93DF93B82ECCE0C60FCA35ED
:1005800018F0CC50CA35E8F7C831E8F4C45FC83178
:10059000E8F319C0F8018081C8130CC0F70180810D
:1005A0008B1108C06D2F8C2F0E94DA00F801A082F9
:1005B000F7011082DF5F0F5F1F4FFFEFEF1AFF0A97
:1005C000DA3041F70CC000E011E00F2EF0E1EF2E21
:1005D000F1E0FF2EF02DD0E0AA24AA94DBCFDF912A
:1005E000CF911F910F91FF90EF90DF90CF90BF9030
:1005F000AF900895DF92EF92FF920F931F93CF93E6
:10060000DF93D82F00E111E00F2EF0E0EF2EF1E0A4
:10061000FF2EF02DC0E0DD24DA94F80180818D13E7
:1006200009C06C2FF70180810E94DA00F701D082A7
:10063000F801D082CF5F0F5F1F4FFFEFEF1AFF0A65
:10064000CA3059F7DF91CF911F910F91FF90EF9032
:10065000DF9008951F920F920FB60F9211248F937F
:100660009F9395B180E2892785B99F918F910F90D3
:100670000FBE0F901F90189520E030E060E870E00A
:1006800090E0AB01022E02C0559547950A94E2F71F
:1006900048235923452B71F02D99FECF2D9BFECF7A
:1006A0004AE24A95F1F700C02C9A40E34A95F1F7E7
:1006B0002C980DC02D9BFECF2D99FECF4AE24A9576
:1006C000F1F700C02C9A40E34A95F1F72C982F5F80
:1006D0003F4F28303105A9F6089582E080936E00DF
:1006E0002FEF89E698E1215080409040E1F700C06B
:1006F000000087E10E943C03089587E90E943C03C3
:1007000087E90E943C0387E90E943C032FEF89E6BA
:1007100098E1215080409040E1F700C00000109225
:100720006E00089582E084BD85BD83E687BD0E948A
:100730006D0324E53DEC8DE293E021503040804094
:100740009040D9F700C000C000000E947D030895CA
:100750001092C50081E18093C400E0ECF0E080815C
:100760008D7F808386E08093C200E1ECF0E088E139
:100770008083808180688083789408951F920F928F
:100780000FB60F9211242F933F934F935F936F9364
:100790007F938F939F93AF93BF93EF93FF93F894BF
:1007A00080918601909187019C012F5F3F4F30938C
:1007B0008701209386012091C600FC01E857FE4F77
:1007C000208340918601509187019A0136952795A3
:1007D00036952795A5ECB0E20E94CE0492958295BD
:1007E0008F7089279F70892764EF71E0869F900141
:1007F000879F300D969F300D1124CA01821B930BE9
:1008000090938701809386017894FF91EF91BF9137
:10081000AF919F918F917F916F915F914F913F9198
:100820002F910F900FBE0F901F9018958093C600C8
:10083000E0ECF0E0808190E08F6D9F6F0196D1F742
:1008400008952091860130918701809184019091D3
:10085000850128173907A9F38091840190918501BA
:100860009C012F5F3F4F3093850120938401FC0151
:10087000E857FE4FE08140918401509185019A0133
:100880003695279536952795A5ECB0E20E94CE04C3
:10089000929582958F7089279F70892764EF71E008
:1008A000869F9001879F300D969F300D1124CA01BD
:1008B000821B930B90938501809384018E2F089562
:1008C0008FEF84B987B98AB18C6F8AB90E94A80367
:1008D0000E940F018FEF0E94C1000E9492038FEFD0
:1008E0000E94CD0000E010E0D0E0F12C6894DD24FF
:1008F000D1F8EE24E3940EC01C2FDE2D0BC00C2F7C
:10090000DD2D08C01F2DDF2D05C01F2DDF2D02C0DE
:100910001F2DDF2D0E942104C82F88236CF3D130B6
:1009200071F3D230B9F7812F807F803821F0803980
:10093000E9F4C11112C04C2F602F812F8F700E94DB
:10094000B202812F0E941604802F0E9416048C2F61
:100950000E9416041F2DDF2DDDCF4C2F602F812F1D
:100960008F700E945D021F2DDF2DD4CF803B51F68A
:1009700088E8800F823048F6C111CACF812F8F706E
:100980000E94FA02812F0E941604802F0E941604F2
:100990008F2D0E9416041C2FDF2DBCCFA29FB0010B
:1009A000B39FC001A39F700D811D1124911DB29FA3
:0E09B000700D811D1124911D0895F894FFCF44
:1009BE00FFFFFFFFFFFFFFFFFFFFFFFFFFFFFFFF39
:1009CE00FFFFFFFFFFFFFFFFFFFFFFFFFFFFFFFF29
:1009DE0003020100070605040302000000000000E8
:1009EE0001010101030303030303020202020202D7
:00000001FF
