S01700004763634170706C69636174696F6E312E737265635B
S11300000C9450000C945A000C945A000C945A000E
S11300100C945A000C945A000C945A000C945A00F4
S11300200C945A000C945A000C945A000C945A00E4
S11300300C945A000C945A000C945A000C945A00D4
S11300400C945A000C945A000C945A000C945A00C4
S11300500C945A000C945A000C945A000C945A00B4
S11300600C945A000C945A000C945A000C945A00A4
S11300700C945A000C945A000C945A000C945A0094
S11300800C945A000C945A000C945A000C945A0084
S11300900C945A000C945A000C945A000C945A0074
S11300A011241FBECFEFCDBFDFE3DEBF0E945C0093
S11300B00C9472000C940000E0E8F4E0808181600C
S11300C0808390E088ED84BF9093610081E0878312
S11300D02FE734E89EE1215030409040E1F700C022
S10B00E00000F5CFF894FFCFF6
S9030000FC
