:100000000EC028C027C026C041C024C023C022C0C3
:1000100021C020C01FC01EC01DC01CC00AC11124A9
:100020001FBECFE5D2E0DEBFCDBF11E0A0E6B0E05D
:10003000E4EAF8E002C005900D92AE3CB107D9F7B2
:1000400021E0AEECB1E001C01D92A73DB207E1F79F
:1000500000D226C4D5CFF89487B38A7F87BB1FB858
:100060008EB1807F8EB9769A88E48DB978940895A0
:10007000F89487B58B7F87BD10BE1FBC80B78360A7
:1000800080BF89B7846089BF789408951F920F92CA
:100090000FB60F9211248F939F931FBC8091D001B4
:1000A00091E0980F9093D0019091CB01891740F087
:1000B0008091CC018FBD1092D0018FEF8093D6013B
:1000C0009F918F910F900FBE0F901F901895CF9317
:1000D000DF9337B3C4E6D0E081E090E0BC01088054
:1000E00002C0660F771F0A94E2F7A2E6B0E0AC0107
:1000F0000C9002C0440F551F0A94E2F7462B432B85
:10010000E0E6F0E09C01008002C0220F331F0A9459
:10011000E2F7242B27BB38B3BC01088002C0660F6E
:10012000771F0A94E2F7AC010C9002C0440F551FF0
:100130000A94E2F7262F242B232B008002C0880F7D
:10014000991F0A94E2F7822B88BBDF91CF91089523
:1001500038B3E4E6F0E081E090E0AC01008002C05A
:10016000440F551F0A94E2F7242F2095232328BB20
:10017000A7ECB0E01197F1F700C0000028B30080B1
:1001800002C0880F991F0A94E2F7822B88BB209146
:10019000CE013091CF01C90101969093CF01809398
:1001A000CE018091CA0190E02817390744F480916C
:1001B000D201882389F080916600882369F028B3F2
:1001C00081E090E00090620002C0880F991F0A94BD
:1001D000E2F7822B88BB0DC028B381E090E000904D
:1001E000620002C0880F991F0A94E2F7809582236B
:1001F00088BB6091CA0170E0660F771F8091CE01C5
:100200009091CF0126D39093CF018093CE01089592
:10021000181619066CF420E030E0EFECF7E03197A7
:10022000F1F700C000002F5F3F4F82179307A9F737
:1002300008951F920F920FB60F9211242F933F93A0
:100240004F935F936F937F938F939F93AF93BF93DE
:10025000EF93FF938FB18093D4018091D1018111ED
:1002600009C01FB88EB1807F8EB9769A78948AE0E3
:1002700090E0CEDFF0DEFF91EF91BF91AF919F91C3
:100280008F917F916F915F914F913F912F910F903F
:100290000FBE0F901F901895EF92FF920F931F9330
:1002A000CF93DF9328B381E090E00090620002C01A
:1002B000880F991F0A94E2F7822B88BBC4E6D0E02E
:1002C00004E610E0EE24E394F12C98B39701F801D2
:1002D000008002C0220F331F0A94E2F7822F80951C
:1002E000892388BB87EC90E00197F1F700C00000FC
:1002F00028B3C701008002C0880F991F0A94E2F753
:10030000822B88BB85E090E083DF2197F1F628B34C
:1003100081E090E00090620002C0880F991F0A946B
:10032000E2F78095822388BBC8E2D0E004E610E0C3
:10033000EE24E394F12C98B39701F801008002C0F9
:10034000220F331F0A94E2F7822F8095892388BBFE
:1003500087EC90E00197F1F700C0000028B3C701D7
:10036000008002C0880F991F0A94E2F7822B88BB95
:1003700085E090E04DDF2197F1F68091CA018695E6
:1003800090E09093CF018093CE01DF91CF911F91A8
:100390000F91FF90EF900895CF93DF93B099FECF28
:1003A000B09BFECF8091CC018FBD1092D601809181
:1003B000D6018823E1F386B3E82FE170F0E01092D4
:1003C000D60140E050E060E070E0C0E6D0E0A1E09F
:1003D000B0E001C0F9019091D6019923E1F386B311
:1003E000282F217030E01092D6012E173F07D9F048
:1003F0006F5F7F4F64FF0DC098B3FD01088002C09E
:10040000EE0FFF1F0A94E2F78E2F8095892388BB99
:100410000AC0E8B3CD01088002C0880F991F0A9472
:10042000E2F78E2B88BB4F5F5F4F403187E2580762
:1004300089F628B381E090E00090600002C0880F48
:10044000991F0A94E2F7822B88BBCB01DF91CF91F1
:100450000895F89480E886BD16BC789438DE08DEEE
:10046000FADD80E0E4E073E062E051E03AC0F89445
:100470009091D4011092D4017894992391F1811133
:1004800005C0852F953569F180E02BC0813021F4BE
:100490009B32F1F4862F25C0823021F49A3AD1F4B0
:1004A000872F1FC0833021F4943DB1F48E2F19C0E3
:1004B0008430A1F4492F4F70A42FB0E092959F7023
:1004C000292F30E0A217B30759F44093D10109C096
:1004D00080E007C080E005C080E003C080E001C08C
:1004E00080E09091D101992309F4C1CF88B300E64F
:1004F00010E0C1E0D0E09E01D8010C9002C0220FB4
:10050000331F0A94E2F72095822388BBC5DE88B3A7
:10051000F801008002C0CC0FDD1F0A94E2F7C82B5F
:10052000C8BB88EE93E074DE1092D401FF24FA94E5
:100530005801CC24C394D12C6894442443F8689483
:10054000552451F80F2EF0E56F2EF02D0F2EF8E305
:100550007F2EF02D33243A946894882482F89924CD
:1005600093940F2EF8E2EF2EF02DF894E091D40141
:100570001092D4017894EE2309F45BC1E13120F4A8
:100580008091D101E81711F0E13119F4F092D30113
:1005900050C1E23141F48091D301882309F4AFC006
:1005A000E092CA0146C1E33141F48091D30188232E
:1005B00009F4A5C09092CA013CC1E43141F4809194
:1005C000D301882309F49BC08092CA0132C1E5316E
:1005D00041F48091D301882309F491C0F092D201B3
:1005E00028C1E63141F48091D301882309F487C002
:1005F000F09266001EC1E73109F07FC07092CC0115
:100600001092CB0185E090E003DEB099FECFC4DE0E
:100610008C0181B7813818F081B7815081BF87EC98
:1006200090E00197F1F700C00000B6DEEC0108177A
:1006300019070CF445C081B7803809F043C0860122
:1006400045C021B60130110539F481B78F3F71F0F3
:1006500081B78F5F81BF0AC00F3F9FEF190731F449
:1006600081B7813818F081B7815081BFA7ECB0E025
:100670001197F1F700C000008FDEC817D90734F0DA
:1006800021B7203819F021B72F3FF9F421BEE7EC4C
:10069000F0E03197F1F700C000007EDE98B39601DC
:1006A000D5010C9002C0220F331F0A94E2F7822F6B
:1006B0008095892388BB8091D4018739E1F70BC0ED
:1006C000860104C0032D1FEF01C0EC018091D4010D
:1006D000873909F0B6CF28B3C601F501008002C002
:1006E000880F991F0A94E2F7822B88BB1092D401DD
:1006F000F09267001092D601A9C0EE2364F18091B8
:10070000D301882341F198B39601D5010C9002C022
:10071000220F331F0A94E2F7822F8095892388BB2A
:10072000E093D501F0E0E859FF4FE081F0E0EE0FF3
:10073000FF1FE851FF4F8081918110926700109256
:10074000D60181958093CC019093CB018091D60105
:10075000811178C00ACF8E2F8F7790E02091D10140
:1007600030E08217930711F0E13919F41092D301A8
:1007700060C0E23941F48091D301882309F459C063
:100780006092CA0156C0E33941F48091D3018823B5
:1007900009F44FC05092CA014CC0E43941F4809131
:1007A000D301882309F445C04092CA0142C0E5390B
:1007B00039F48091D3018823E1F11092D20139C03C
:1007C000E63939F48091D301882399F110926600BB
:1007D00030C0E83950F02091D50130E082179307FE
:1007E00021F48091D301811103C0E03819F021C0B8
:1007F000E03869F488B39601F501008002C0220F49
:10080000331F0A94E2F72095822388BB45DD28B385
:10081000C601D5010C9002C0880F991F0A94E2F717
:10082000822B88BBF09267001092D5011092D601FE
:100830000DC08091D601882309F497CE809167007E
:10084000811193CE85DC1092D6018FCE8091D60196
:100850008CCE97FB072E16F4009406D077FD08D0B7
:100860000BD007FC05D03EF4909581959F4F0895DD
:10087000709561957F4F0895AA1BBB1B51E107C07E
:10088000AA1FBB1FA617B70710F0A61BB70B881F20
:10089000991F5A95A9F780959095BC01CD010895AF
:0408A000F894FFCFFA
:1008A400010003000400FFFF01020304050607081A
:1008B400090A0B000102030405060708090A0B00D4
:1008C4000102030405060708090A0B0001020304D8
:1008D40005060708090A0B0C0D0E0F10111213144C
:1008E40015161718191A1B1C1D1E1F20212223243C
:1008F40025262728292A2B2C2D2E2F30313233342C
:1009040035363738393A3B3C3D3E3F40414243441B
:1009140045464748494A4B4C4D4E4F50515253540B
:1009240055565758595A5B5C19FDE4EE7CE1D4D412
:10093400E2C89CBDF7B2ECA8719F7E960C8E13861C
:100944008C7E7277BE706A6A7164CE5E7C5976540E
:10095400B84F3F4B06470943463FB93B5F383535EF
:100964003832672FBE2C3B2ADC279F258323852121
:10097400A31FDD1D2F1C9A1A1C19B3175F161D1512
:10098400EE13D012C111C210D20FEE0E180E4D0D7F
:100994008E0CDA0B2F0B8F0AF7096809E10861083E
:1009A400E90777070C07A7064706ED0598054705ED
:1009B400FC04B40470043104F403BC03860353033D
:1009C4002403F602CC02A4027E025A023802180260
:1009D400FA01DE01C301AA0192017B016601520101
:1009E4003F012D011C010C01FD00EF00E100D500C9
:1009F400C900BE00B300A9009F0096008E008600C7
:0E0A04007F00770071006A00640050FFFF0061
:00000001FF
